:020000040800F2
:10000000B1AA010000000000000000000000000094
:1000100000000000000000000000000000000000E0
:1000200000000000000000000000000000000000D0
:1000300000000000000000000000000000000000C0
:1000400000000000000000000000000000000000B0
:1000500000000000000000000000000000000000A0
:100060000000000000000000000000000000000090
:100070000000000000000000000000000000000080
:100080000000000000000000000000000000000070
:100090000000000000000000000000000000000060
:1000A0000000000000000000000000000000000050
:1000B0000000000000000000000000000000000040
:1000C0000000000000000000000000000000000030
:1000D0000000000000000000000000000000000020
:1000E0000000000000000000000000000000000010
:1000F0000000000000000000000000000000000000
:1001000000000000000000000000000000000000EF
:1001100000000000000000000000000000000000DF
:1001200000000000000000000000000000000000CF
:1001300000000000000000000000000000000000BF
:1001400000000000000000000000000000000000AF
:100150000000000000000000000000007370043088
:10016000170500001305C5FF8545F605637BB5003F
:1001700089816378B500170500001305C5002E9529
:1001800002859302002073A0027D970200009382F3
:1001900062E77390723097120000938262CA739084
:1001A000C27E73E0C07E971200009382A2C173905A
:1001B0005230970100189381E16A178100181301EA
:1001C00061E4172500001305A5DE97050018938547
:1001D00065E31386018463FAC5008322050023A02A
:1001E000550011059105E3EAC5FE13850184938549
:1001F000818D6377B500232005001105E36DB5FE01
:1002000073F00232171500001305A5DBEF0010583C
:10021000EF00905E0145814595216F00D05701A008
:0E02200073E00232828073F0023282800000AE
:100240000000000000000000010203040607080986
:100250006E6D690A00000000747261700A0000008F
:100260000A50726F6772616D2068617320657869EA
:10027000746564207769746820636F64653A000070
:1002800030780000680000200000000068000020B6
:10029000010000006800002002000000680000204B
:1002A0000300000068000020040000006800002037
:1002B0000500000068000020060000006800002023
:1002C000070000006800002008000000680000200F
:1002D00009000000680000200A00000068000020FB
:1002E0000B000000680000200C00000068000020E7
:1002F0000D000000680000200E00000068000020D3
:100300000F000000700000200000000070000020BE
:1003100001000000700000200200000070000020BA
:1003200003000000700000200400000070000020A6
:100330000500000070000020060000007000002092
:10034000070000007000002008000000700000207E
:1003500009000000700000200A000000700000206A
:100360000B000000700000200C0000007000002056
:100370000D000000700000200E0000007000002042
:100380000F0000007800002000000000780000202E
:10039000010000007800002002000000780000202A
:1003A0000300000078000020040000007800002016
:1003B0000500000078000020060000007800002002
:1003C00007000000780000200800000078000020EE
:1003D00009000000780000200A00000078000020DA
:1003E0000B000000780000200C00000078000020C6
:1003F0000D000000780000200E00000078000020B2
:100400000F0000008000002000000000800000209D
:100410000100000080000020020000008000002099
:100420000300000080000020040000008000002085
:100430000500000080000020060000008000002071
:10044000070000008000002008000000800000205D
:1004500009000000800000200A0000008000002049
:100460000B000000800000200C0000008000002035
:100470000D000000800000200E0000008000002021
:100480000F0000008800002000000000880000200D
:100490000100000088000020020000008800002009
:1004A00003000000880000200400000088000020F5
:1004B00005000000880000200600000088000020E1
:1004C00007000000880000200800000088000020CD
:1004D00009000000880000200A00000088000020B9
:1004E0000B000000880000200C00000088000020A5
:1004F0000D000000880000200E0000008800002091
:100500000F000000D017000884180008DA17000850
:10051000841800087618000884180008DA17000804
:10052000D0170008D017000876180008DA1700085E
:10053000B6170008B6170008B6170008DE1700083F
:10054000B81C0008B81C0008D01C0008B21C000829
:10055000B21C00085E1D0008D01C0008B21C000878
:100560005E1D0008B21C0008D01C0008B01C00086A
:10057000B01C0008B01C00085E1D0008000102024B
:10058000030303030404040404040404050505052B
:100590000505050505050505050505050606060607
:1005A00006060606060606060606060606060606EB
:1005B00006060606060606060606060607070707D7
:1005C00007070707070707070707070707070707BB
:1005D00007070707070707070707070707070707AB
:1005E000070707070707070707070707070707079B
:1005F0000707070707070707070707070808080887
:10060000080808080808080808080808080808086A
:10061000080808080808080808080808080808085A
:10062000080808080808080808080808080808084A
:10063000080808080808080808080808080808083A
:10064000080808080808080808080808080808082A
:10065000080808080808080808080808080808081A
:10066000080808080808080808080808080808080A
:10067000080808080808080808080808374501405D
:1006800041111305058006C6152819203120FDBF2C
:1006900085451305D00241AA411185451305D002B5
:1006A00006C6C5221305803E952A1305D002814552
:1006B000C92AB2401305803E41018DA24111B747BE
:1006C000014022C406C626C2938707802A84631A83
:1006D000F50613052060BD2C1305E060A52CB714AA
:1006E0000140930600200D46E14513850480C92290
:1006F000930600400D46914513850480552A2285B6
:100700007D2EF1652285938505200D292285814561
:100710007929228581456D212285814549212285BE
:100720008145D92922858145F1292285914565296F
:100730002285A145652122852244B240924441018F
:1007400049A9B7470040938707406312F502130594
:100750002060092413051071F52AB7140140914651
:100760000D46E14513850480A122A14661B7B24040
:10077000224492444101828079714AD04ECE5AC8B7
:1007800006D622D426D252CC56CA5EC662C466C2EF
:100790002A8B7D23AA892E896523AA842E846394BB
:1007A000A900E30BB9FEB707002003A9870983A9B5
:1007B000C709B70B00206923AA87058DB3B7A70027
:1007C000818D9D8DEF108060AA8A03A50B062E8A6D
:1007D000EF10E05A4A86CE86EF00D037AA8C5A85B1
:1007E0002E8CEF10C0592A86AE866685E285EF1002
:1007F00000152A86AE865685D285EF10E009E34CB7
:1008000005FAB250225492540259F249624AD24A2D
:10081000424BB24B224C924C456182809307803E02
:100820003305F50291BF9307F00463EBA7048D47EE
:1008300063E8B704011122CC370400080E05130445
:1008400044282A9426CAB72700080440938747FA09
:10085000BE9583C50500C84006CE2EC6E528834652
:100860004400B245884005443314D400A2860D46A6
:1008700081209C40F240D244C0CB6244056182801A
:1008800082809307F00463E4A702B70700081317F8
:100890003500138547283A951C4183464500984307
:1008A0008547B397D70099C11CCB82805CCB8280EF
:1008B00093F7050193F8F50099C3B3E8C8008147A1
:1008C000054EBD4E130F8002930F80042143331653
:1008D000FE00758E1DC213972700832205003398F2
:1008E000EE001348F8FF337858003397E800336779
:1008F00007016399E50550C918C18507E39967FCAD
:10090000054EBD4E130F8002930F800441433316F2
:10091000FE00758E05C61397270001178322450038
:100920003398EE001348F8FF337858003397E80007
:1009300033670701639CE50150C958C18507E398F7
:1009400067FC8280E39AF5FB10C97DB7E397F5FF5A
:1009500010C9E5B713576500B71702403E97144317
:1009600085473395A700558D08C38280B71702408D
:10097000135765003E9714438547B397A70093C765
:10098000F7FFF58F1CC38280F1B7CDB77971B7053A
:10099000000822D441462A8493850524080806D6F7
:1009A000E125B70703049387172002C03EC202C4A3
:1009B0003EC6371702405C43894689838D8B63911D
:1009C000D70E5C439396F70063D606065C57939662
:1009D000F70063DC06045C57585791832183BD8B75
:1009E0003D8B938617000907C5476313F7005147EE
:1009F000B7177A0093870720B3D7D702B387E702E8
:100A00003717024058573D8B050733D7E702B71613
:100A10000240DC42D442C98313962600BD8B63504A
:100A2000060293E7070185070DA0B7177A009387A1
:100A30000720F9B7B7173D0013870790C9BFBD4618
:100A4000E383D7FE89076387D704B387E702B71626
:100A50000240D842101011833D8B3297034707FFA5
:100A600033D5E700D84221831D8B3297034607FE1A
:100A7000D84214102D831D8B3697834687FE094775
:100A8000630CE4026363870211E03E85B250225496
:100A9000456182809947B307F7020583BA9745BF3E
:100AA000B7177A00938707205DB78D473355D50078
:100AB000E30EF4FC0145D9BF3355C500C1BF411158
:100AC000B757004006C6138707C0630DE504636F80
:100AD000A70037470040130707406309E5029387E3
:100AE0000780630BF502B240410182806302F50486
:100AF000B747014093870780E317F5FE1305E03001
:100B000061351305E030B240410141B51305104194
:100B1000A53D13051041C5BF13052041B53513058B
:100B20002041D5B713053041853513053041E1BF6C
:100B300013054041913D13054041F1B74111B757AD
:100B4000004022C426C206C6138707C02A84AE848A
:100B5000630DE500636DA700B7C7FFBF938707C0AC
:100B6000AA9793F7F7BF014591EF094519A8E30E3E
:100B7000F5FEB74701409387078001456314F400F1
:100B80000D45293593D714003E9533559502B24053
:100B900092444205418108C4224441018280584563
:100BA0001377F79F58C55C45CD8F5CC5828058454B
:100BB000FD76FD16758F58C55C45CD8F5CC582806E
:100BC0001849F576FD16758F18C91C49CD8F1CC9BB
:100BD00082805C450967D98F5CC582805C45DD9B5E
:100BE000CD8F5CC582805C45ED9BCD8F5CC58280DE
:100BF00093F5F51F4CC182805C4993F7F7EFCD8FD9
:100C00005CC982805C4993F7F7DFCD8F5CC9828035
:100C100093D7650093F7F73FAA9788433355B500FC
:100C200005898280B71702409843B706FFE0B106F6
:100C30001367170098C3D843758FD8C39843B70676
:100C4000F7FEFD16758F98C39843B706FCFFFD1697
:100C5000758F98C3D843B70601DFFD16758FD8C3CB
:100C600023A607029843B706F7EAFD16758F98C3C7
:100C70003707FF0098C794434167D98E94C3930701
:100C8000F7FF3717024014431396E600634406004B
:100C9000FD17F5FBB717024098439316E70063C3AF
:100CA000060001A0D843B706C4DFFD16D8C3D84359
:100CB000D8C3D84313670740D8C3D843758FD8C368
:100CC000D843B7062920558FD8C3D857BD76758F1E
:100CD000D8D7D857C166938616F1558FD8D7984381
:100CE000B7060004558F98C3B71702409843931670
:100CF0004700E3DD06FE9843B7060010558F98C302
:100D0000B7170240984393162700E3DD06FE984389
:100D1000B7060001558F98C3B71702409843931642
:100D20006700E3DD06FED843719BD8C3D843136741
:100D30002700D8C3371702405C43A18BF5DF8280C0
:100D4000B70700D1D8438843CC43E39DE5FE8280BA
:100D5000B70700D223800700A3850700931745003B
:100D6000371500D23E95B71700D263E3A700828003
:100D700023A00700C107D5BFF327503093F707FC26
:100D800093E7370073905730828000000000000026
:100D90000000000000000000000000000000000053
:100DA0000000000000000000000000000000000043
:100DB0000000000000000000000000000000000033
:100DC0005D7106C012C216C41AC61EC82ACA2ECC2D
:100DD00032CE36D03AD23ED442D646D872DA76DC1B
:100DE0007ADEFEC0F322103496C0F322003096C2A1
:100DF000F322407C96C4732520348A85E120864204
:100E000073901234964273900230A6427390427CE3
:100E100082401242A2423243C2435245E2457246E8
:100E200082561257A2573258C258525EE25E725F23
:100E3000864F616173002030000000005D7106C0C4
:100E400012C216C41AC61EC82ACA2ECC32CE36D03A
:100E50003AD23ED442D646D872DA76DC7ADEFEC08A
:100E600073D0E87E7350F97E73D0B97EF390D07E54
:100E700073700430B6427390427CA6427390123471
:100E800096427390223482401242A2423243C243BD
:100E90005245E245724682561257A2573258C258FE
:100EA000525EE25E725F864F616173002030B7056B
:100EB00000084111154693850525054506C6BD2C3C
:100EC00005451D204111856722C406C6FD172A84E9
:100ED0006313F500E93FB70500081546938585259E
:100EE0000545A92C228509207971B705000822D46F
:100EF0007D462A84938505260A8506D6B52279463D
:100F00008A850945252CA28509450928B7050008C9
:100F100005469385C5250945152401A079714AD058
:100F20002E89B705000809469385052822D426D2C4
:100F30004ECE52CC56CA06D6AA84714401243D4AEC
:100F4000A54AF159B3178A00B3F72701B3D7870031
:100F500093F7F70F63E9FA0293870703E207E18744
:100F600005469305F10026857114A307F100F922C7
:100F7000E31A34FDB250225492540259F249624AA3
:100F8000D24A4561828093877703C9BFAA8581468B
:100F900001460145DDA24111B717000822C406C66B
:100FA0009387E71F2A8499C38145912CB7270008AE
:100FB00003A587FA1C5591C38297228535374111C5
:100FC000B727000822C4372400081387C7FA130480
:100FD000C4FA198C26C206C609849384C7FA11E4A0
:100FE0002244B24092444101DDAC7D1493172400A9
:100FF000A6979C438297E5B74111B727000822C402
:10100000372400081387C7FA1304C4FA198C26C2C0
:101010004AC006C6098481441389C7FA63988402CA
:101020005D24B7270008372400081387C7FA130484
:10103000C4FA198C098481441389C7FA639F840018
:10104000B240224492440249410182809397240095
:10105000CA979C4385048297D1B793972400CA9777
:101060009C4385048297D9BFB3C7A5008D8BB30677
:10107000C50081E78D4763EEC700AA876378D50A6C
:1010800003C7050085078505A38FE7FEE3EAD7FEC2
:10109000828013773500AA8711CB03C70500850727
:1010A0008505A38FE7FE13F73700FDB713F7C6FFDB
:1010B000130607FE63FBC70483A3050083A2450054
:1010C00083AF850003AFC50083AE050103AE4501C4
:1010D00003A3850183A8C50123A0770023A257009D
:1010E00003A8050223A4F70123A6E70123A8D7013B
:1010F00023AAC70123AC670023AE170193854502DD
:101100009387470223AE07FF75B72E883E8663603C
:10111000E6021388D7FF0146636607010D071D8F9E
:101120001376C7FFB297B295E3ECD7F48280832899
:10113000080011061108232E16FFD1BFB7070020A3
:10114000B2862E86AA8503A5470609A0411122C4AE
:1011500026C22A842E85B285368606C623A8018C2F
:10116000552AFD576316F50083A7018D91C31CC056
:10117000B2402244924441018280370800208327F4
:10118000080AAA889DE3138541842320A80A37080A
:10119000000013030800938741846308030083273A
:1011A00008002324F50893874184D8437D487D5562
:1011B0006346E804638D080203A8870863000804F7
:1011C00013152700429510C1032308100546331656
:1011D000E6003363C300232068102320D508894626
:1011E0006397D80083264810558E2322C810930693
:1011F00017000A07D4C3BA978CC70145828079715A
:1012000052CC56CA5AC862C406D622D426D24AD074
:101210004ECE5EC666C2AA8A2E8A054C03A40184FD
:10122000938B018411C84440832984081389F4FFF7
:101230008A04A294635F0900B25022549254025966
:10124000F249624AD24A424BB24B224C924C45611F
:101250008280630E0A00639509007D19F114D9BFDD
:1012600093172900CE9783A70708E39847FF5840B4
:10127000DC407D176318270323222401F9DF832C28
:1012800044006388090083A6091033172C01F98EE6
:1012900089EE8297584083A70B00E31197F9E30E7C
:1012A000F4FAADBF23A20400D1BF93162900CE9655
:1012B0008C4283A64910758F01E756858297D9BF66
:1012C0002E858297C1BF411106C6EFF0BF95130569
:1012D0007005BD3C5534B24041016FE07FF482801F
:1012E000411126C2B744014022C49375F50F2A84E8
:1012F0001385048006C693840480EFF07F8F9D459C
:101300002685EFF0FF9065DDB240228522449244AD
:1013100041018280011122CC26CA4AC84EC606CE9F
:10132000B2842E843389C500A949631A2401F2408E
:1013300062444249B2492685D24405618280034510
:101340000400793F83470400639437013545493FE2
:101350000504E1BF797193D7450126D24AD052CC1A
:101360005EC662C49394C50006D622D44ECE56CA39
:101370005AC8139757012A89B28B368CB18013DA79
:10138000F50149C793FAF77F9307F07F638AFA0C58
:101390009359D5018E04B3E49900B7098000B3E9ED
:1013A000340113143500938A1AC0014B93574C0132
:1013B0009314CC0013975701B18093F5F77F135C1A
:1013C000FC0171C39307F07F638AF5101395340015
:1013D00093D7DB015D8DB7048000C98C939F3B00E0
:1013E000138515C0014693172B00D18FFD17394780
:1013F000B3468A01B385AA406364F7103707000833
:101400008A0713074750BA979C438287B3E9A40021
:10141000638209069DC82685EF001035930755FFA6
:1014200071476349F702F549130485FFB389F94011
:10143000B3948400B3593901B3E999003314890096
:101440009305D0C0B38AA5408DB7EF00F0311305E6
:101450000502E9B7930485FDB31999000144CDB79E
:10146000B3E9A400638C09002A84A689930AF07F5B
:101470000D4B2DBF0144814A054B0DBF0144930A1A
:10148000F07F094B25B7B3EF740163820F069DC847
:101490002685EF00702DAA85938755FF7147634914
:1014A000F702F546938F85FF9D8E3395F401B3D6F1
:1014B000DB00B3E4A600B39FFB011307D0C03305E4
:1014C000B7400DB75E85EF00302A93050502E9B7F6
:1014D000138585FDB394AB00814FC5B7B3EF74019D
:1014E000638B0F00DE8F1305F07F0D46EDBD814449
:1014F00001450546CDBD81441305F07F0946E5B59C
:1015000063E634016396992A6364F42B1396F90118
:10151000135714009317F40193D919003364E600AC
:101520001395840093D88F01B3E8A800418133D884
:10153000A902939E080193DE0E0113570401139331
:101540008F00B3F4A902C28F33860E03939904016E
:1015500033673701637CC7004697930FF8FF6367D3
:1015600017016375C700930FE8FF4697118F335E2D
:10157000A702420441803377A70272863388CE03E4
:101580004207418F637C070146971306FEFF63679E
:101590001701637507011306EEFF469733040741F1
:1015A000C20F4168B3EFCF00130EF8FF13D60F013F
:1015B00033F7CF01135F0301337EC301B303EE02A0
:1015C000B304C6033307EF02B302E6033306970002
:1015D00013D70301329763739700C2921356070122
:1015E0001696C162FD12337857004208B3F35300D8
:1015F0001E986367C400FE84631EC40263FC070375
:101600009A9733B7670046973A949384FFFF63E64F
:1016100088006391880263EF67006366C400631B00
:10162000860063F907019A9733B76700469793845A
:10163000EFFF3A9433880741118CB3B707011D8C33
:10164000FD5F6387880EB35FA402135708013374EC
:10165000A4027E86B387FE034204598C637CF400A7
:1016600046941386FFFF636714016375F4001386C5
:10167000EFFF46941D8C3357A4024208135808010B
:101680003374A402BA87B38EEE0242043364880036
:10169000637CD40146949307F7FF63671401637575
:1016A000D4019307E7FF469442065D8E9317060127
:1016B000C183135706013308EF023304D441330FBB
:1016C000FF02B38EC703330EC70393D70E01729F79
:1016D000FA9763F4C70141673A9813D70701429715
:1016E00041687D1833F507014205B3FE0E0176957A
:1016F0006366E4006310E41AB28F1DC94694930F29
:10170000F6FF636114036366E4006314E418637D09
:10171000A3009317130033B367009A98930FE6FF63
:1017200046943E836314E4006304650093EF1F0056
:101730009387F53F635BF00A13F77F0001CF13F740
:10174000FF0011466308C70013864F00B33FF60140
:10175000FE94B28F1397740063580700B70700FF19
:10176000FD17FD8C938705401307E07F6342F70662
:1017700093DF3F001397D4013367F70113D534008B
:10178000D2073706F07F3205B2502254F18F3181F3
:101790005D8DFE06B367D50092540259F249624A44
:1017A000D24A424BB24B224C3A85BE85456182807B
:1017B000FD158147B5B3D286CE84A28F5A868D4758
:1017C000630BF60A8547630FF60A8947E312F6F6BC
:1017D000014501479307F07F65B7E286CDB7B704AF
:1017E0000800814F81460D46D9BF05451D8D130761
:1017F00080036349A7087D476349A7049385E541B2
:10180000B397B40033D7AF00B395BF00D98FB335CA
:10181000B000CD8F33D5A40013F7770001CF13F7B5
:10182000F70011466308C70013874700B337F70076
:101830003E95BA8713178500634907041317D5012E
:101840008D835D8F0D81814725BF0557B307F74015
:1018500013060002B3D7F40001476306C500938561
:10186000E5433397B400B36FF701B33FF001B3E73B
:10187000F701014555B73705080001479307F07F89
:101880008146FDBD014501477DBF014501478547B3
:10189000C5BD7E86B28F59BD370710007D1713D89E
:1018A0004501B378B700AA872A831378F87F13D548
:1018B000F501930EF07F93D54601758F328E93F527
:1018C000F57FFD826318D801B3EEF80063840E063D
:1018D000094582806396D501B36EC700E39A0EFE78
:1018E000631C0804B3E7F80093B7170099E1598E19
:1018F0000DCE81EB6314D50063D905010DC57D556F
:1019000082807D5591C6368582806354B80065D942
:101910008280E36517FF639CE800E3616EFEE36885
:10192000C3FF0145828005458280E5FFC1BFE3E03A
:10193000E8FEC5BFE38205FBD5FD81474DBF797148
:1019400093D7450122D426D24ECE52CC56CA939478
:10195000C50006D64AD05AC85EC6139757012A84D6
:10196000B289B68AB18013DAF50159C313FBF77F48
:101970009307F07F6304FB0C9357D5018E04DD8C35
:10198000B7078000DD8C13193500130B1BC0814B8A
:1019900093D74A011394CA0013975701318013F566
:1019A000F77F93DAFA014DCF9307F07F6300F510CC
:1019B00093D7D9010E045D8CB70780005D8C1305A9
:1019C00015C093973900014793962B00D98E5A95ED
:1019D000FD16394833465A01930515006369D80E40
:1019E000370500088A0613050554AA969442828694
:1019F00033E9A400630D090485C82685B5231307C0
:101A000055FFF14763C6E702F547130985FF998F34
:101A1000B3942401B357F400DD8C33192401130B64
:101A2000D0C0330BAB40A5B7812313050502C1BF5E
:101A3000930485FDB31494000149D5B733E9A4009C
:101A4000630B09002A89130BF07F8D4B91B78144FA
:101A5000014B854B35BF8144130BF07F894B0DBF84
:101A6000B3673401A1CF05C82285FD29930655FF30
:101A7000F14763C7D7027547930785FF158F331466
:101A8000F40033D7E900598CB397F9001307D0C09D
:101A90003305A7400DBF4E85C12913050502F9B7CF
:101AA000130485FD339489008147CDB7B3673401B2
:101AB00091CBCE871305F07F0D4739B7014401451F
:101AC000054719B701441305F07F0947F5BD416F7C
:101AD0001307FFFF9356090113D307013379E90078
:101AE000F98FB30823033308F902B38FF602B38EDC
:101AF000F80193580801F698338E660263F3F801F3
:101B00007A9E93D20801B3F8E8003378E800135FB7
:101B10000401C208798CC29833878602330889028F
:101B200033092F03B30EE900135908017699B386E0
:101B3000E6036374E9004167BA96935E0901B69EB5
:101B4000C166938FF6FF3379F9013378F80113D723
:101B500004014209B3F4F401B38397024299CA9293
:101B600033089302B307F702B30FE3023303F8001D
:101B700013D803011A986373F800B69F93570801AE
:101B8000C166BE9F9387F6FF3378F800B3F7F30082
:101B9000B303940242083E9833048702B3049F02C1
:101BA0003303EF02A29413D70301BA9463F38400C2
:101BB0003693C167FD17B3F6F400C206B3F7F3001E
:101BC000169EBE9633392E01F69633872601429E25
:101BD00033380E01330FF701B3020F01B3B6D6014C
:101BE00033372701558F33B80201C180B33FFF015E
:101BF000269733E80F0193179E0042971A97B3E791
:101C000017012607B337F000135E7E0113D472016B
:101C1000B3E7C701A60293167700598CB3E75700C4
:101C200063DA060A13D71700858BD98F1317F401CF
:101C3000D98F05809386F53F6350D00A13F777005C
:101C400001CF13F7F70011456308A700138747007A
:101C5000B337F7003E94BA87131774006358070030
:101C6000370700FF7D17798C938605401307E07FC7
:101C7000634ED70E13D737009317D401D98F0D8039
:101C8000139746013204B706F07F758F3180598C67
:101C90007E06B2503367C400225492540259F2496E
:101CA000624AD24A424BB24B3E85BA854561828038
:101CB00052862684CA875E8789466309D70A8D467D
:101CC000630FD7088546E317D7F6014481479DA0E7
:101CD0005686DDB7AA85B9BF0545158D1307800364
:101CE000E345A7FE7D476349A7049385E541331784
:101CF000B400B3D6A700B397B700558FB337F00041
:101D0000D98F3354A40013F7770001CF13F7F700EE
:101D100091466308D70013874700B337F7003E9416
:101D2000BA8713178400634807041317D4018D83FF
:101D3000D98F0D808146A9B70557158F130800026A
:101D40003357E4008146630605019385E543B316E6
:101D5000B400D58FB337F000D98F01446DB7370485
:101D6000080081479306F07F014619BF014481476F
:101D70009306F07F31B701448147854611B7411181
:101D800022C406C62A8421C1C5221307E041A947FF
:101D9000098F63C4A702AD47898F5505B357F40077
:101DA0003314A400B2402285B20722445207B18303
:101DB000B366F700B68541018280930755FFB317DC
:101DC000F4000144C5B781470147E9BF011106CEC0
:101DD00022CC26CA4AC84EC652C4B367B500638730
:101DE00007122A842E89AE84ADC12E85B52AAA8910
:101DF000130AE043330A3A419307304363C147076C
:101E00002D47A287635337031307A00263433705A7
:101E10009304B002138759FFB3843441B354940040
:101E2000B315E900CD8CB317E400F24062449395FA
:101E3000C400520AB1813367BA00D2444249B24960
:101E4000224A3E85BA8505618280392A93090502B6
:101E500045B7938559FDB314B4008147F9B793078B
:101E6000604363D34703138689032285CA85C1284B
:101E70004D8D2146B334A000CA85228533063641F4
:101E8000512833E4A4002E892147A287CA856354D0
:101E900037031307700263453707138789FFB315AC
:101EA000E900130980023309394133592401B3652C
:101EB000B900B317E400370780FF7D17F98D13F7DA
:101EC000770001CF13F7F70091466308D700138717
:101ED0004700B337F700BE95BA8713978500635A5A
:101EE0000700370780FF7D17130AF043F98D330A87
:101EF0003A418D831395D501C98F93D4350035B7F9
:101F0000938589FDB315B400814775B78144814736
:101F1000014A21BF01CE93070002918F6349F0006F
:101F2000130506FE014733D5A500BA85828033D755
:101F3000C5003355C500B395F5004D8DFDB701CEF5
:101F400093070002918F6349F000930506FE014755
:101F5000B315B5003A8582803317C500B395C50027
:101F60003355F500C98DFDB7C1676376F502930758
:101F7000F00FB3B7A7008E073707000893060002DB
:101F80009D8E3355F5009307C7573E9503450500D1
:101F90003385A640828037070001C147E36EE5FC28
:041FA000E147D9BF7D
:041FA40004104828B5
:041FA8000000002015
:101FAC000000000000000000000000000000000025
:101FBC000000000000000000000000000000000015
:101FCC000000000000000000000000000000000005
:101FDC0000000000000000000000000000000000F5
:101FEC0000000000000000000000000000000000E5
:101FFC0000000000000000000000000000000000D5
:10200C0000F36F06000000200008014002060000EB
:10201C00000C014003060000001001400406000003
:10202C0000140140050600000018014006060000DF
:10203C00000000000040AF400000000080844E41D2
:040000050800015C92
:00000001FF
